{
  "_format": "hh-sol-artifact-1",
  "contractName": "gpsContract",
  "sourceName": "contracts/gps-tracker-eth.sol",
  "abi": [
    {
      "inputs": [],
      "stateMutability": "payable",
      "type": "constructor"
    },
    {
      "inputs": [
        {
          "internalType": "address",
          "name": "emp_address",
          "type": "address"
        }
      ],
      "name": "addEmployee",
      "outputs": [],
      "stateMutability": "nonpayable",
      "type": "function"
    },
    {
      "inputs": [
        {
          "internalType": "address",
          "name": "emp",
          "type": "address"
        }
      ],
      "name": "checkEmployeeExists",
      "outputs": [
        {
          "internalType": "bool",
          "name": "",
          "type": "bool"
        }
      ],
      "stateMutability": "view",
      "type": "function"
    },
    {
      "inputs": [
        {
          "internalType": "address",
          "name": "emp_add",
          "type": "address"
        },
        {
          "internalType": "uint256",
          "name": "longtude_val",
          "type": "uint256"
        },
        {
          "internalType": "uint256",
          "name": "latitude_val",
          "type": "uint256"
        },
        {
          "internalType": "uint256",
          "name": "amount",
          "type": "uint256"
        },
        {
          "internalType": "uint8",
          "name": "start_hour",
          "type": "uint8"
        },
        {
          "internalType": "uint8",
          "name": "start_minute",
          "type": "uint8"
        },
        {
          "internalType": "uint8",
          "name": "end_hour",
          "type": "uint8"
        },
        {
          "internalType": "uint8",
          "name": "end_minute",
          "type": "uint8"
        },
        {
          "internalType": "uint8",
          "name": "radius",
          "type": "uint8"
        }
      ],
      "name": "createContract",
      "outputs": [],
      "stateMutability": "payable",
      "type": "function"
    },
    {
      "inputs": [],
      "name": "getActiveCount",
      "outputs": [
        {
          "internalType": "uint256",
          "name": "",
          "type": "uint256"
        }
      ],
      "stateMutability": "view",
      "type": "function"
    },
    {
      "inputs": [],
      "name": "getActiveEmployees",
      "outputs": [
        {
          "components": [
            {
              "internalType": "uint256",
              "name": "latitude",
              "type": "uint256"
            },
            {
              "internalType": "uint256",
              "name": "longtude",
              "type": "uint256"
            },
            {
              "internalType": "bool",
              "name": "isactive",
              "type": "bool"
            },
            {
              "internalType": "uint8",
              "name": "start_hour",
              "type": "uint8"
            },
            {
              "internalType": "uint8",
              "name": "start_minute",
              "type": "uint8"
            },
            {
              "internalType": "uint8",
              "name": "end_hour",
              "type": "uint8"
            },
            {
              "internalType": "uint8",
              "name": "end_minute",
              "type": "uint8"
            },
            {
              "internalType": "uint256",
              "name": "amount",
              "type": "uint256"
            },
            {
              "internalType": "uint8",
              "name": "validRadius",
              "type": "uint8"
            }
          ],
          "internalType": "struct gpsContract.EmployeeContract[]",
          "name": "",
          "type": "tuple[]"
        }
      ],
      "stateMutability": "view",
      "type": "function"
    },
    {
      "inputs": [],
      "name": "kill",
      "outputs": [],
      "stateMutability": "nonpayable",
      "type": "function"
    },
    {
      "inputs": [],
      "name": "listEmployees",
      "outputs": [
        {
          "internalType": "address[]",
          "name": "",
          "type": "address[]"
        }
      ],
      "stateMutability": "view",
      "type": "function"
    },
    {
      "inputs": [],
      "name": "owner",
      "outputs": [
        {
          "internalType": "address",
          "name": "",
          "type": "address"
        }
      ],
      "stateMutability": "view",
      "type": "function"
    },
    {
      "inputs": [
        {
          "internalType": "address",
          "name": "emp_add",
          "type": "address"
        }
      ],
      "name": "pay",
      "outputs": [],
      "stateMutability": "payable",
      "type": "function"
    },
    {
      "inputs": [
        {
          "internalType": "address",
          "name": "emp_add",
          "type": "address"
        }
      ],
      "name": "remove_contract",
      "outputs": [],
      "stateMutability": "nonpayable",
      "type": "function"
    },
    {
      "inputs": [
        {
          "internalType": "uint256",
          "name": "lat",
          "type": "uint256"
        },
        {
          "internalType": "uint256",
          "name": "long",
          "type": "uint256"
        }
      ],
      "name": "sendCoordinates",
      "outputs": [],
      "stateMutability": "nonpayable",
      "type": "function"
    }
  ],
  "bytecode": "0x6080604052336000806101000a81548173ffffffffffffffffffffffffffffffffffffffff021916908373ffffffffffffffffffffffffffffffffffffffff160217905550611913806100536000396000f3fe60806040526004361061009c5760003560e01c8063721c9bfd11610064578063721c9bfd146101555780638da5cb5b146101925780639e08f85b146101bd578063cda24f20146101e6578063f3cb8c3114610202578063fd1c94be1461022b5761009c565b80630c11dedd146100a157806326ac375b146100bd57806341c0e1b5146100e857806347e23df9146100ff57806363338b171461012a575b600080fd5b6100bb60048036038101906100b6919061105d565b610254565b005b3480156100c957600080fd5b506100d261033b565b6040516100df9190611148565b60405180910390f35b3480156100f457600080fd5b506100fd6103c9565b005b34801561010b57600080fd5b50610114610457565b6040516101219190611321565b60405180910390f35b34801561013657600080fd5b5061013f6106ee565b60405161014c9190611352565b60405180910390f35b34801561016157600080fd5b5061017c6004803603810190610177919061105d565b6107c2565b604051610189919061137c565b60405180910390f35b34801561019e57600080fd5b506101a7610870565b6040516101b491906113a6565b60405180910390f35b3480156101c957600080fd5b506101e460048036038101906101df919061105d565b610894565b005b61020060048036038101906101fb9190611419565b610969565b005b34801561020e57600080fd5b506102296004803603810190610224919061105d565b610c6b565b005b34801561023757600080fd5b50610252600480360381019061024d91906114e3565b610cdf565b005b6000600260008373ffffffffffffffffffffffffffffffffffffffff1673ffffffffffffffffffffffffffffffffffffffff16815260200190815260200160002060020160006101000a81548160ff0219169083151502179055508073ffffffffffffffffffffffffffffffffffffffff166108fc600260008473ffffffffffffffffffffffffffffffffffffffff1673ffffffffffffffffffffffffffffffffffffffff168152602001908152602001600020600301549081150290604051600060405180830381858888f19350505050158015610337573d6000803e3d6000fd5b5050565b606060018054806020026020016040519081016040528092919081815260200182805480156103bf57602002820191906000526020600020905b8160009054906101000a900473ffffffffffffffffffffffffffffffffffffffff1673ffffffffffffffffffffffffffffffffffffffff1681526020019060010190808311610375575b5050505050905090565b60008054906101000a900473ffffffffffffffffffffffffffffffffffffffff1673ffffffffffffffffffffffffffffffffffffffff163373ffffffffffffffffffffffffffffffffffffffff16036104555760008054906101000a900473ffffffffffffffffffffffffffffffffffffffff1673ffffffffffffffffffffffffffffffffffffffff16ff5b565b606060006104636106ee565b905060008167ffffffffffffffff81111561048157610480611523565b5b6040519080825280602002602001820160405280156104ba57816020015b6104a7610f9d565b81526020019060019003908161049f5790505b50905060005b6001805490508110156106e55760026000600183815481106104e5576104e4611552565b5b9060005260206000200160009054906101000a900473ffffffffffffffffffffffffffffffffffffffff1673ffffffffffffffffffffffffffffffffffffffff1673ffffffffffffffffffffffffffffffffffffffff16815260200190815260200160002060020160009054906101000a900460ff16156106d257600260006001838154811061057857610577611552565b5b9060005260206000200160009054906101000a900473ffffffffffffffffffffffffffffffffffffffff1673ffffffffffffffffffffffffffffffffffffffff1673ffffffffffffffffffffffffffffffffffffffff1681526020019081526020016000206040518061012001604052908160008201548152602001600182015481526020016002820160009054906101000a900460ff161515151581526020016002820160019054906101000a900460ff1660ff1660ff1681526020016002820160029054906101000a900460ff1660ff1660ff1681526020016002820160039054906101000a900460ff1660ff1660ff1681526020016002820160049054906101000a900460ff1660ff1660ff168152602001600382015481526020016004820160009054906101000a900460ff1660ff1660ff16815250508282815181106106c6576106c5611552565b5b60200260200101819052505b80806106dd906115b0565b9150506104c0565b50809250505090565b6000806000905060005b6001805490508110156107ba57600260006001838154811061071d5761071c611552565b5b9060005260206000200160009054906101000a900473ffffffffffffffffffffffffffffffffffffffff1673ffffffffffffffffffffffffffffffffffffffff1673ffffffffffffffffffffffffffffffffffffffff16815260200190815260200160002060020160009054906101000a900460ff16156107a75781806107a3906115b0565b9250505b80806107b2906115b0565b9150506106f8565b508091505090565b600080600090505b600180549050811015610865578273ffffffffffffffffffffffffffffffffffffffff166001828154811061080257610801611552565b5b9060005260206000200160009054906101000a900473ffffffffffffffffffffffffffffffffffffffff1673ffffffffffffffffffffffffffffffffffffffff160361085257600191505061086b565b808061085d906115b0565b9150506107ca565b50600090505b919050565b60008054906101000a900473ffffffffffffffffffffffffffffffffffffffff1681565b600260008273ffffffffffffffffffffffffffffffffffffffff1673ffffffffffffffffffffffffffffffffffffffff16815260200190815260200160002060008082016000905560018201600090556002820160006101000a81549060ff02191690556002820160016101000a81549060ff02191690556002820160026101000a81549060ff02191690556002820160036101000a81549060ff02191690556002820160046101000a81549060ff021916905560038201600090556004820160006101000a81549060ff0219169055505050565b86600260008b73ffffffffffffffffffffffffffffffffffffffff1673ffffffffffffffffffffffffffffffffffffffff1681526020019081526020016000206000018190555087600260008b73ffffffffffffffffffffffffffffffffffffffff1673ffffffffffffffffffffffffffffffffffffffff168152602001908152602001600020600101819055506001600260008b73ffffffffffffffffffffffffffffffffffffffff1673ffffffffffffffffffffffffffffffffffffffff16815260200190815260200160002060020160006101000a81548160ff02191690831515021790555084600260008b73ffffffffffffffffffffffffffffffffffffffff1673ffffffffffffffffffffffffffffffffffffffff16815260200190815260200160002060020160016101000a81548160ff021916908360ff16021790555083600260008b73ffffffffffffffffffffffffffffffffffffffff1673ffffffffffffffffffffffffffffffffffffffff16815260200190815260200160002060020160026101000a81548160ff021916908360ff16021790555082600260008b73ffffffffffffffffffffffffffffffffffffffff1673ffffffffffffffffffffffffffffffffffffffff16815260200190815260200160002060020160036101000a81548160ff021916908360ff16021790555081600260008b73ffffffffffffffffffffffffffffffffffffffff1673ffffffffffffffffffffffffffffffffffffffff16815260200190815260200160002060020160046101000a81548160ff021916908360ff16021790555085600260008b73ffffffffffffffffffffffffffffffffffffffff1673ffffffffffffffffffffffffffffffffffffffff1681526020019081526020016000206003018190555080600260008b73ffffffffffffffffffffffffffffffffffffffff1673ffffffffffffffffffffffffffffffffffffffff16815260200190815260200160002060040160006101000a81548160ff021916908360ff160217905550505050505050505050565b610c74816107c2565b610cdc576001819080600181540180825580915050600190039060005260206000200160009091909190916101000a81548173ffffffffffffffffffffffffffffffffffffffff021916908373ffffffffffffffffffffffffffffffffffffffff1602179055505b50565b610ce8336107c2565b15610d28576040517f08c379a0000000000000000000000000000000000000000000000000000000008152600401610d1f90611655565b60405180910390fd5b6000604051806040016040528084815260200183815250905060006040518060400160405280600260003373ffffffffffffffffffffffffffffffffffffffff1673ffffffffffffffffffffffffffffffffffffffff168152602001908152602001600020600001548152602001600260003373ffffffffffffffffffffffffffffffffffffffff1673ffffffffffffffffffffffffffffffffffffffff1681526020019081526020016000206001015481525090506000610dea8383610e57565b9050600260003373ffffffffffffffffffffffffffffffffffffffff1673ffffffffffffffffffffffffffffffffffffffff16815260200190815260200160002060040160009054906101000a900460ff1660ff16811115610e5057610e4f33610ecc565b5b5050505050565b600080836000015190506000836000015190506000856020015190506000856020015190506000610ebc610e978385610e909190611675565b6002610f2a565b610ead8688610ea69190611675565b6002610f2a565b610eb791906116a9565b610f40565b9050809550505050505092915050565b6000600260008373ffffffffffffffffffffffffffffffffffffffff1673ffffffffffffffffffffffffffffffffffffffff16815260200190815260200160002060020160006101000a81548160ff02191690831515021790555050565b60008183610f389190611832565b905092915050565b6000806002600184610f5291906116a9565b610f5c91906118ac565b90508291505b81811015610f97578091506002818285610f7c91906118ac565b610f8691906116a9565b610f9091906118ac565b9050610f62565b50919050565b6040518061012001604052806000815260200160008152602001600015158152602001600060ff168152602001600060ff168152602001600060ff168152602001600060ff16815260200160008152602001600060ff1681525090565b600080fd5b600073ffffffffffffffffffffffffffffffffffffffff82169050919050565b600061102a82610fff565b9050919050565b61103a8161101f565b811461104557600080fd5b50565b60008135905061105781611031565b92915050565b60006020828403121561107357611072610ffa565b5b600061108184828501611048565b91505092915050565b600081519050919050565b600082825260208201905092915050565b6000819050602082019050919050565b6110bf8161101f565b82525050565b60006110d183836110b6565b60208301905092915050565b6000602082019050919050565b60006110f58261108a565b6110ff8185611095565b935061110a836110a6565b8060005b8381101561113b57815161112288826110c5565b975061112d836110dd565b92505060018101905061110e565b5085935050505092915050565b6000602082019050818103600083015261116281846110ea565b905092915050565b600081519050919050565b600082825260208201905092915050565b6000819050602082019050919050565b6000819050919050565b6111a981611196565b82525050565b60008115159050919050565b6111c4816111af565b82525050565b600060ff82169050919050565b6111e0816111ca565b82525050565b610120820160008201516111fd60008501826111a0565b50602082015161121060208501826111a0565b50604082015161122360408501826111bb565b50606082015161123660608501826111d7565b50608082015161124960808501826111d7565b5060a082015161125c60a08501826111d7565b5060c082015161126f60c08501826111d7565b5060e082015161128260e08501826111a0565b506101008201516112976101008501826111d7565b50505050565b60006112a983836111e6565b6101208301905092915050565b6000602082019050919050565b60006112ce8261116a565b6112d88185611175565b93506112e383611186565b8060005b838110156113145781516112fb888261129d565b9750611306836112b6565b9250506001810190506112e7565b5085935050505092915050565b6000602082019050818103600083015261133b81846112c3565b905092915050565b61134c81611196565b82525050565b60006020820190506113676000830184611343565b92915050565b611376816111af565b82525050565b6000602082019050611391600083018461136d565b92915050565b6113a08161101f565b82525050565b60006020820190506113bb6000830184611397565b92915050565b6113ca81611196565b81146113d557600080fd5b50565b6000813590506113e7816113c1565b92915050565b6113f6816111ca565b811461140157600080fd5b50565b600081359050611413816113ed565b92915050565b60008060008060008060008060006101208a8c03121561143c5761143b610ffa565b5b600061144a8c828d01611048565b995050602061145b8c828d016113d8565b985050604061146c8c828d016113d8565b975050606061147d8c828d016113d8565b965050608061148e8c828d01611404565b95505060a061149f8c828d01611404565b94505060c06114b08c828d01611404565b93505060e06114c18c828d01611404565b9250506101006114d38c828d01611404565b9150509295985092959850929598565b600080604083850312156114fa576114f9610ffa565b5b6000611508858286016113d8565b9250506020611519858286016113d8565b9150509250929050565b7f4e487b7100000000000000000000000000000000000000000000000000000000600052604160045260246000fd5b7f4e487b7100000000000000000000000000000000000000000000000000000000600052603260045260246000fd5b7f4e487b7100000000000000000000000000000000000000000000000000000000600052601160045260246000fd5b60006115bb82611196565b91507fffffffffffffffffffffffffffffffffffffffffffffffffffffffffffffffff82036115ed576115ec611581565b5b600182019050919050565b600082825260208201905092915050565b7f596f7520617265206e6f7420616e20656d706c6f796565000000000000000000600082015250565b600061163f6017836115f8565b915061164a82611609565b602082019050919050565b6000602082019050818103600083015261166e81611632565b9050919050565b600061168082611196565b915061168b83611196565b92508282101561169e5761169d611581565b5b828203905092915050565b60006116b482611196565b91506116bf83611196565b9250827fffffffffffffffffffffffffffffffffffffffffffffffffffffffffffffffff038211156116f4576116f3611581565b5b828201905092915050565b60008160011c9050919050565b6000808291508390505b60018511156117565780860481111561173257611731611581565b5b60018516156117415780820291505b808102905061174f856116ff565b9450611716565b94509492505050565b60008261176f576001905061182b565b8161177d576000905061182b565b8160018114611793576002811461179d576117cc565b600191505061182b565b60ff8411156117af576117ae611581565b5b8360020a9150848211156117c6576117c5611581565b5b5061182b565b5060208310610133831016604e8410600b84101617156118015782820a9050838111156117fc576117fb611581565b5b61182b565b61180e848484600161170c565b9250905081840481111561182557611824611581565b5b81810290505b9392505050565b600061183d82611196565b915061184883611196565b92506118757fffffffffffffffffffffffffffffffffffffffffffffffffffffffffffffffff848461175f565b905092915050565b7f4e487b7100000000000000000000000000000000000000000000000000000000600052601260045260246000fd5b60006118b782611196565b91506118c283611196565b9250826118d2576118d161187d565b5b82820490509291505056fea26469706673582212209f8dcfc825b77a182752ac93ce6fd2b0fa4bf537c50e1a7ba8d3e01f67c7e9ec64736f6c634300080f0033",
  "linkReferences": {},
  "deployedLinkReferences": {}
}