{
  "_format": "hh-sol-artifact-1",
  "contractName": "gpsContract",
  "sourceName": "contracts/gps-tracker-eth.sol",
  "abi": [
    {
      "inputs": [],
      "stateMutability": "payable",
      "type": "constructor"
    },
    {
      "inputs": [
        {
          "internalType": "address",
          "name": "emp_address",
          "type": "address"
        }
      ],
      "name": "addEmployee",
      "outputs": [],
      "stateMutability": "nonpayable",
      "type": "function"
    },
    {
      "inputs": [
        {
          "internalType": "address",
          "name": "emp",
          "type": "address"
        }
      ],
      "name": "checkEmployeeExists",
      "outputs": [
        {
          "internalType": "bool",
          "name": "",
          "type": "bool"
        }
      ],
      "stateMutability": "view",
      "type": "function"
    },
    {
      "inputs": [
        {
          "internalType": "address",
          "name": "emp_add",
          "type": "address"
        },
        {
          "internalType": "uint256",
          "name": "longtude_val",
          "type": "uint256"
        },
        {
          "internalType": "uint256",
          "name": "latitude_val",
          "type": "uint256"
        },
        {
          "internalType": "uint256",
          "name": "amount",
          "type": "uint256"
        },
        {
          "internalType": "uint8",
          "name": "start_hour",
          "type": "uint8"
        },
        {
          "internalType": "uint8",
          "name": "start_minute",
          "type": "uint8"
        },
        {
          "internalType": "uint8",
          "name": "end_hour",
          "type": "uint8"
        },
        {
          "internalType": "uint8",
          "name": "end_minute",
          "type": "uint8"
        },
        {
          "internalType": "uint8",
          "name": "radius",
          "type": "uint8"
        }
      ],
      "name": "createContract",
      "outputs": [],
      "stateMutability": "payable",
      "type": "function"
    },
    {
      "inputs": [],
      "name": "kill",
      "outputs": [],
      "stateMutability": "nonpayable",
      "type": "function"
    },
    {
      "inputs": [],
      "name": "owner",
      "outputs": [
        {
          "internalType": "address",
          "name": "",
          "type": "address"
        }
      ],
      "stateMutability": "view",
      "type": "function"
    },
    {
      "inputs": [
        {
          "internalType": "address",
          "name": "emp_add",
          "type": "address"
        }
      ],
      "name": "pay",
      "outputs": [],
      "stateMutability": "payable",
      "type": "function"
    },
    {
      "inputs": [
        {
          "internalType": "address",
          "name": "emp_add",
          "type": "address"
        }
      ],
      "name": "remove_contract",
      "outputs": [],
      "stateMutability": "nonpayable",
      "type": "function"
    },
    {
      "inputs": [
        {
          "internalType": "uint256",
          "name": "lat",
          "type": "uint256"
        },
        {
          "internalType": "uint256",
          "name": "long",
          "type": "uint256"
        }
      ],
      "name": "sendCoordinates",
      "outputs": [],
      "stateMutability": "nonpayable",
      "type": "function"
    }
  ],
  "bytecode": "0x6080604052336000806101000a81548173ffffffffffffffffffffffffffffffffffffffff021916908373ffffffffffffffffffffffffffffffffffffffff16021790555061112c806100536000396000f3fe60806040526004361061007b5760003560e01c80639e08f85b1161004e5780639e08f85b1461011b578063cda24f2014610144578063f3cb8c3114610160578063fd1c94be146101895761007b565b80630c11dedd1461008057806341c0e1b51461009c578063721c9bfd146100b35780638da5cb5b146100f0575b600080fd5b61009a60048036038101906100959190610b65565b6101b2565b005b3480156100a857600080fd5b506100b1610299565b005b3480156100bf57600080fd5b506100da60048036038101906100d59190610b65565b610327565b6040516100e79190610bad565b60405180910390f35b3480156100fc57600080fd5b506101056103d5565b6040516101129190610bd7565b60405180910390f35b34801561012757600080fd5b50610142600480360381019061013d9190610b65565b6103f9565b005b61015e60048036038101906101599190610c61565b6104ce565b005b34801561016c57600080fd5b5061018760048036038101906101829190610b65565b6107d0565b005b34801561019557600080fd5b506101b060048036038101906101ab9190610d2b565b610844565b005b6000600260008373ffffffffffffffffffffffffffffffffffffffff1673ffffffffffffffffffffffffffffffffffffffff16815260200190815260200160002060020160006101000a81548160ff0219169083151502179055508073ffffffffffffffffffffffffffffffffffffffff166108fc600260008473ffffffffffffffffffffffffffffffffffffffff1673ffffffffffffffffffffffffffffffffffffffff168152602001908152602001600020600301549081150290604051600060405180830381858888f19350505050158015610295573d6000803e3d6000fd5b5050565b60008054906101000a900473ffffffffffffffffffffffffffffffffffffffff1673ffffffffffffffffffffffffffffffffffffffff163373ffffffffffffffffffffffffffffffffffffffff16036103255760008054906101000a900473ffffffffffffffffffffffffffffffffffffffff1673ffffffffffffffffffffffffffffffffffffffff16ff5b565b600080600090505b6001805490508110156103ca578273ffffffffffffffffffffffffffffffffffffffff166001828154811061036757610366610d6b565b5b9060005260206000200160009054906101000a900473ffffffffffffffffffffffffffffffffffffffff1673ffffffffffffffffffffffffffffffffffffffff16036103b75760019150506103d0565b80806103c290610dc9565b91505061032f565b50600090505b919050565b60008054906101000a900473ffffffffffffffffffffffffffffffffffffffff1681565b600260008273ffffffffffffffffffffffffffffffffffffffff1673ffffffffffffffffffffffffffffffffffffffff16815260200190815260200160002060008082016000905560018201600090556002820160006101000a81549060ff02191690556002820160016101000a81549060ff02191690556002820160026101000a81549060ff02191690556002820160036101000a81549060ff02191690556002820160046101000a81549060ff021916905560038201600090556004820160006101000a81549060ff0219169055505050565b86600260008b73ffffffffffffffffffffffffffffffffffffffff1673ffffffffffffffffffffffffffffffffffffffff1681526020019081526020016000206000018190555087600260008b73ffffffffffffffffffffffffffffffffffffffff1673ffffffffffffffffffffffffffffffffffffffff168152602001908152602001600020600101819055506001600260008b73ffffffffffffffffffffffffffffffffffffffff1673ffffffffffffffffffffffffffffffffffffffff16815260200190815260200160002060020160006101000a81548160ff02191690831515021790555084600260008b73ffffffffffffffffffffffffffffffffffffffff1673ffffffffffffffffffffffffffffffffffffffff16815260200190815260200160002060020160016101000a81548160ff021916908360ff16021790555083600260008b73ffffffffffffffffffffffffffffffffffffffff1673ffffffffffffffffffffffffffffffffffffffff16815260200190815260200160002060020160026101000a81548160ff021916908360ff16021790555082600260008b73ffffffffffffffffffffffffffffffffffffffff1673ffffffffffffffffffffffffffffffffffffffff16815260200190815260200160002060020160036101000a81548160ff021916908360ff16021790555081600260008b73ffffffffffffffffffffffffffffffffffffffff1673ffffffffffffffffffffffffffffffffffffffff16815260200190815260200160002060020160046101000a81548160ff021916908360ff16021790555085600260008b73ffffffffffffffffffffffffffffffffffffffff1673ffffffffffffffffffffffffffffffffffffffff1681526020019081526020016000206003018190555080600260008b73ffffffffffffffffffffffffffffffffffffffff1673ffffffffffffffffffffffffffffffffffffffff16815260200190815260200160002060040160006101000a81548160ff021916908360ff160217905550505050505050505050565b6107d981610327565b610841576001819080600181540180825580915050600190039060005260206000200160009091909190916101000a81548173ffffffffffffffffffffffffffffffffffffffff021916908373ffffffffffffffffffffffffffffffffffffffff1602179055505b50565b61084d33610327565b1561088d576040517f08c379a000000000000000000000000000000000000000000000000000000000815260040161088490610e6e565b60405180910390fd5b6000604051806040016040528084815260200183815250905060006040518060400160405280600260003373ffffffffffffffffffffffffffffffffffffffff1673ffffffffffffffffffffffffffffffffffffffff168152602001908152602001600020600001548152602001600260003373ffffffffffffffffffffffffffffffffffffffff1673ffffffffffffffffffffffffffffffffffffffff168152602001908152602001600020600101548152509050600061094f83836109bc565b9050600260003373ffffffffffffffffffffffffffffffffffffffff1673ffffffffffffffffffffffffffffffffffffffff16815260200190815260200160002060040160009054906101000a900460ff1660ff168111156109b5576109b433610a31565b5b5050505050565b600080836000015190506000836000015190506000856020015190506000856020015190506000610a216109fc83856109f59190610e8e565b6002610a8f565b610a128688610a0b9190610e8e565b6002610a8f565b610a1c9190610ec2565b610aa5565b9050809550505050505092915050565b6000600260008373ffffffffffffffffffffffffffffffffffffffff1673ffffffffffffffffffffffffffffffffffffffff16815260200190815260200160002060020160006101000a81548160ff02191690831515021790555050565b60008183610a9d919061104b565b905092915050565b6000806002600184610ab79190610ec2565b610ac191906110c5565b90508291505b81811015610afc578091506002818285610ae191906110c5565b610aeb9190610ec2565b610af591906110c5565b9050610ac7565b50919050565b600080fd5b600073ffffffffffffffffffffffffffffffffffffffff82169050919050565b6000610b3282610b07565b9050919050565b610b4281610b27565b8114610b4d57600080fd5b50565b600081359050610b5f81610b39565b92915050565b600060208284031215610b7b57610b7a610b02565b5b6000610b8984828501610b50565b91505092915050565b60008115159050919050565b610ba781610b92565b82525050565b6000602082019050610bc26000830184610b9e565b92915050565b610bd181610b27565b82525050565b6000602082019050610bec6000830184610bc8565b92915050565b6000819050919050565b610c0581610bf2565b8114610c1057600080fd5b50565b600081359050610c2281610bfc565b92915050565b600060ff82169050919050565b610c3e81610c28565b8114610c4957600080fd5b50565b600081359050610c5b81610c35565b92915050565b60008060008060008060008060006101208a8c031215610c8457610c83610b02565b5b6000610c928c828d01610b50565b9950506020610ca38c828d01610c13565b9850506040610cb48c828d01610c13565b9750506060610cc58c828d01610c13565b9650506080610cd68c828d01610c4c565b95505060a0610ce78c828d01610c4c565b94505060c0610cf88c828d01610c4c565b93505060e0610d098c828d01610c4c565b925050610100610d1b8c828d01610c4c565b9150509295985092959850929598565b60008060408385031215610d4257610d41610b02565b5b6000610d5085828601610c13565b9250506020610d6185828601610c13565b9150509250929050565b7f4e487b7100000000000000000000000000000000000000000000000000000000600052603260045260246000fd5b7f4e487b7100000000000000000000000000000000000000000000000000000000600052601160045260246000fd5b6000610dd482610bf2565b91507fffffffffffffffffffffffffffffffffffffffffffffffffffffffffffffffff8203610e0657610e05610d9a565b5b600182019050919050565b600082825260208201905092915050565b7f596f7520617265206e6f7420616e20656d706c6f796565000000000000000000600082015250565b6000610e58601783610e11565b9150610e6382610e22565b602082019050919050565b60006020820190508181036000830152610e8781610e4b565b9050919050565b6000610e9982610bf2565b9150610ea483610bf2565b925082821015610eb757610eb6610d9a565b5b828203905092915050565b6000610ecd82610bf2565b9150610ed883610bf2565b9250827fffffffffffffffffffffffffffffffffffffffffffffffffffffffffffffffff03821115610f0d57610f0c610d9a565b5b828201905092915050565b60008160011c9050919050565b6000808291508390505b6001851115610f6f57808604811115610f4b57610f4a610d9a565b5b6001851615610f5a5780820291505b8081029050610f6885610f18565b9450610f2f565b94509492505050565b600082610f885760019050611044565b81610f965760009050611044565b8160018114610fac5760028114610fb657610fe5565b6001915050611044565b60ff841115610fc857610fc7610d9a565b5b8360020a915084821115610fdf57610fde610d9a565b5b50611044565b5060208310610133831016604e8410600b841016171561101a5782820a90508381111561101557611014610d9a565b5b611044565b6110278484846001610f25565b9250905081840481111561103e5761103d610d9a565b5b81810290505b9392505050565b600061105682610bf2565b915061106183610bf2565b925061108e7fffffffffffffffffffffffffffffffffffffffffffffffffffffffffffffffff8484610f78565b905092915050565b7f4e487b7100000000000000000000000000000000000000000000000000000000600052601260045260246000fd5b60006110d082610bf2565b91506110db83610bf2565b9250826110eb576110ea611096565b5b82820490509291505056fea26469706673582212202bf754223f704f3f5e0ad6e245ff7acb3662969fd5010dee37218bb0ffe4058264736f6c634300080f0033",
  "linkReferences": {},
  "deployedLinkReferences": {}
}